:020000040800F2
:10000000005000202D3700087537000875370008AC
:1000100075370008753700087537000800000000C4
:10002000000000000000000000000000753700081C
:10003000753700080000000075370008ED02000861
:1000400075370008753700087537000875370008E0
:1000500075370008753700087537000875370008D0
:1000600075370008753700087537000875370008C0
:1000700075370008753700087537000875370008B0
:1000800075370008753700087537000875370008A0
:1000900069100008753700087537000875370008C3
:1000A0007537000875370008753700087537000880
:1000B0007537000875370008753700087537000870
:1000C0007537000875370008753700087537000860
:1000D000753700085D14000875370008753700088B
:1000E00075370008753700087537000800000000F4
:1000F0000000000000000000000000000000000000
:0C01000000000000000000005FF808F1A3
:10010C0010B5054C237833B9044B13B10448AFF345
:10011C0000800123237010BD0C00002000000000A3
:10012C001438000808B5034B1BB103490348AFF35F
:10013C00008008BD000000001000002014380008EA
:10014C0082B00A4BDA6942F00102DA61DB6903F032
:10015C0001030193019B4FF0804347229A624FF0B9
:10016C00FF32DA6201221A6002B0704700100240BE
:10017C0008B500F055FC08BD08B500F004FC08BD3E
:10018C0070B586B0104B9A6942F010029A619B6967
:10019C0003F010030193019B002402940394049434
:1001AC00059401230393022305934FF40056029602
:1001BC00064D02A9284602F0F1FD2246314628469A
:1001CC0002F0FEFE06B070BD0010024000100140AF
:1001DC0000B583B072B64FF40051064802F0F6FE3B
:1001EC0000230193019A044B9A42F4D8019B0133EA
:1001FC000193F7E7001001401FA1070000B591B073
:10020C002822002106A803F0E3FA002301930293AD
:10021C000393049305930223069301220A9210225E
:10022C000B920D934FF460130F9306A802F0EEFEA1
:10023C0080B90F23019302210291002303934FF401
:10024C0080620492059301A803F012F920B911B051
:10025C005DF804FBFFF7BCFFFFF7BAFF00B595B0E4
:10026C0001F03EFAFFF7CAFF03F0B8F9194BA3FBF4
:10027C000030800903F030FA042003F041FAFFF754
:10028C007FFFFFF75DFF00238DF848304FF4E1331B
:10029C00139312A801F0E4F808B1FFF799FF00F0EE
:1002AC00EBFB0D49002000F079FE0C4800F0C6FF76
:1002BC0000230DF10602402102A801F039F90028B3
:1002CC00F6D1BDF806100029F2D002A800F04EFBC2
:1002DC00EEE700BFD34D6210850100087D010008D8
:1002EC0008B501F00FFA01F071F908BD80EA0120A0
:1002FC00002303E0400080B20133DBB2072B08D8A7
:10030C0010F4004FF6D041F2210181EA400080B296
:10031C00F2E7704770B506460D4600244FF6FF70A5
:10032C0004E0315DFFF7E2FF0134A4B2AC42F8D334
:10033C0070BD082919D938B504460378A52B17D1F7
:10034C00A1F10905ADB243191B7A5A2B13D103390C
:10035C0089B2FFF7DFFFAB1DE35C2C44E27943EA83
:10036C00022398420AD1002038BD4FF0FF3070476D
:10037C004FF0FF30F8E74FF0FF30F5E76FF001007A
:10038C00F2E70000B2F5807F2CD8F8B514461D4674
:10039C00093296B2154F3B8803F1010CA7F800C047
:1003AC00A5272F706A70C2F30722AA70E8702B7110
:1003BC001B0A6B7124B119B12246A81D03F0FAF97E
:1003CC000634A4B221462846FFF7A4FF2855631C27
:1003DC00C0F30720E85402345A232B55069B1E8089
:1003EC000020F8BD4FF0FF30704700BF36010020F1
:1003FC0010B5C6B00DF10A03009303AB00221146F1
:10040C00FFF7C0FF50B904466422BDF80A1003A8D8
:10041C0001F068F828B9204646B010BD4FF0FF3403
:10042C00F9E74FF0FF34F6E700B583B0A020FFF7F3
:10043C00DFFF0023019302E0019B01330193019A3A
:10044C00034B9A42F8D901F013F903B05DF804FBA1
:10045C009F86010010B5C6B00DF10A03009303ABE3
:10046C00FFF790FF50B904466422BDF80A1003A8A8
:10047C0001F038F828B9204646B010BD4FF0FF34D3
:10048C00F9E74FF0FF34F6E710B586B00E291DD909
:10049C004279034653F8071B6424029401930379B1
:1004AC000093C2F3400302F00102807900F006FDD4
:1004BC0034238DF8143068B900238DF815300222DE
:1004CC0005A9A020FFF7C6FF06B010BDA120FFF7BD
:1004DC008FFFF9E71223F0E700B583B000F03EFE82
:1004EC0033238DF8043050B900238DF805300222E7
:1004FC0001A9A020FFF7AEFF03B05DF804FBFF23BA
:10050C00F3E700B583B000F007FE80B100F006FE03
:10051C0032238DF80430B0B900238DF80530022257
:10052C0001A9A020FFF796FF03B05DF804FB32236E
:10053C008DF8003020238DF8013002226946A0206E
:10054C00FFF788FFF0E7FF23E7E700B583B0002053
:10055C0000F056FD31238DF8043050B900238DF88E
:10056C000530022201A9A020FFF774FF03B05DF84B
:10057C0004FBFF23F3E700B583B0002000F01DFD62
:10058C0030238DF8043050B900238DF80530022249
:10059C0001A9A020FFF75EFF03B05DF804FBFF2369
:1005AC00F3E700B583B0B9B100784FF4E13101281D
:1005BC0014BF0020012000F06FFF28238DF80430B9
:1005CC0070B900238DF80530022201A9A020FFF795
:1005DC0041FF03B05DF804FBA120FFF709FFF8E72A
:1005EC003023EFE710B584B005291FD9044600F07D
:1005FC0093FDF8B12368029323798DF80C3063795D
:10060C008DF80D3000238DF80E3002A800F0B8FDE7
:10061C0020238DF80430C0B900238DF80530022258
:10062C0001A9A020FFF716FF04B010BDA120FFF711
:10063C00DFFEF9E720238DF800308DF8013002221F
:10064C006946A020FFF706FFEEE70223E5E700B5B9
:10065C0087B013291CD903690393C3680293836879
:10066C00019343680093C37882784178007800F056
:10067C00E4FB12238DF8143070B900238DF815307B
:10068C00022205A9A020FFF7E5FE07B05DF804FBE8
:10069C00A120FFF7ADFEF8E70223EFE700B583B02A
:1006AC00012912D94178007800F082FB11238DF8D2
:1006BC00043070B900238DF80530022201A9A02066
:1006CC00FFF7C8FE03B05DF804FBA120FFF790FE16
:1006DC00F8E70223EFE700B583B0042912D90168CB
:1006EC00007900F01DFB10238DF8043070B9002345
:1006FC008DF80530022201A9A020FFF7ABFE03B054
:10070C005DF804FBA120FFF773FEF8E70223EFE787
:10071C0010B584B000238DF80F3002938DF807309C
:10072C0000F0FAFC0446F0B98DF800409DF80F304B
:10073C008DF801309DF807308DF80230029B8DF852
:10074C000330C3F307228DF80420C3F307428DF85E
:10075C0005201B0E8DF80630072269468420FFF712
:10076C0079FE04B010BD0DF1070202A90DF10F00C6
:10077C0000F06AFDD8E730B587B0002504950595E3
:10078C00284600F05DFC401B18BF01208DF81000BE
:10079C0000F0A2FE8DF8120000F060FF05902C46D0
:1007AC0001E00134E4B200F049FCA04209D9204632
:1007BC0000F046FC0028F4D00123A3401D43EDB209
:1007CC00EFE78DF813500DF1070202A90DF10F00A0
:1007DC0000F03AFD18B99DF80F308DF81130082251
:1007EC0004A98320FFF736FE07B030BD00B589B0F1
:1007FC0004A800F01DFF0023019302930393049BB4
:10080C0001939DF814308DF80830069BCDF8093013
:10081C009DF81C308DF80D30BDF81E30ADF80E3043
:10082C000C2201A98220FFF715FE09B05DF804FB2C
:10083C0010B5A6B014A800F0DDFE4A242246002113
:10084C0001A802F0C5FF9DF850308DF804309DF8DA
:10085C0051308DF805309DF852308DF806304FF43C
:10086C008073ADF80830259BCDF84A301F220DF16E
:10087C0053010DF10A0002F0B3FF1F220DF17301B9
:10088C000DF12A0002F0ACFF224601A98120FFF7EE
:10089C00E1FD26B010BD00002F4B1B8863B9A528C5
:1008AC0001D000207047591C2B4A11802B4AD05480
:1008BC0000202B4B18807047B3F5847F3FD85A1C0F
:1008CC0092B225490A802549C854032A19D010B57B
:1008DC00234B1C88002C3AD0A2423AD321461F4805
:1008EC00FFF727FD20BB1D4BD878093CA1B2002394
:1008FC000E2B1DD81B4A12F83320824212D0013322
:10090C00F6E74B78897843EA012315490B80093BBC
:10091C009BB2B3F5807FDAD90F4B00221A804FF0CF
:10092C00FF3070470F4A02EBC3035B680E489847D1
:10093C000023094A13800A4A1380012008E000238F
:10094C00054A1380064A13804FF0FF307047002091
:10095C0010BD0020FCE700BF320100202800002061
:10096C00340100202C3800082E00002070B50646FB
:10097C000D46002404E0305DFFF78EFF0134A4B275
:10098C00AC42F8D370BD10B588B004460023039375
:10099C00049305930693CDF81B3003690393036806
:1009AC000493037B8DF81430C37B8DF81E30437B8E
:1009BC0013B101238DF81530A37B2BB19DF81530A5
:1009CC0043F002038DF81530237D2BB19DF81530C3
:1009DC0043F004038DF81530227B082A28BF082227
:1009EC00211D0DF1160002F0E5FE237D0BB1A3696C
:1009FC0033B9132203A99020FFF72CFD08B010BDCA
:100A0C00002201920292ADF8063023690293FF2373
:100A1C008DF80430082201A99220FFF71BFDE8E7AE
:100A2C002DE9F041054603895E00B6B2792B00D959
:100A3C00F2264FEA560806F10E07BFB20D4C40F2F3
:100A4C0009120021204602F0C3FE2B682360A4F893
:100A5C0008802B7B63816B7B63733246696804F17E
:100A6C000E0002F0A7FE3A4621469120FFF7F2FC59
:100A7C00BDE8F0813801002010B59CB0242422463A
:100A8C00002113A802F0A4FE01A800F0B3FD1F2260
:100A9C000DF1070113A802F0A3FE9DF804308DF8A8
:100AAC006C309DF805308DF86D309DF806308DF862
:100ABC006E3000F011FD8DF86F00224613A99320C3
:100ACC00FFF7C8FC1CB010BD28B900EB800303482D
:100ADC0000EB031070470020704700BF4402002059
:100AEC0028B900EB8003034800EB0310704700208B
:100AFC00704700BF44020020002863D070B58646C2
:100B0C000125B5F5806F5AD80EFB05F0304CB4FBBF
:100B1C00F0F0A0F10804112C05D9072801D8012DFB
:100B2C0053D80135EDE700FB05FC294CB4FBFCFC6C
:100B3C00E64515D2ACEB0E0C4FF47A7404FB0CFCAE
:100B4C00BCFBFEFCBCF10A0FEBD88400214EA6FBCB
:100B5C000464A408013C0CD0102C0BD9102409E01F
:100B6C00AEEB0C0C4FF47A7404FB0CFCBCFBFEFCDF
:100B7C00E8E70124061B013E0CD0082E0BD90826F1
:100B8C00042E1AD830460D6014601E60049B186049
:100B9C00002070BD0126082EF2D9B0F1090405D051
:100BAC00102C07D9082610240420ECE70826012471
:100BBC000420E8E708260420E5E70420E3E74FF0EB
:100BCC00FF30E6E74FF0FF3070474FF0FF30E0E7C3
:100BDC0000512502CDCCCCCC70B590B00646FFF7B9
:100BEC007FFF04463046FFF76FFF24B1054610B176
:100BFC0094F84D3043BB10B070BD099A0092042B91
:100C0C0014BF002301238DF80D300C9B022B14BF55
:100C1C00002301238DF80E300D9B8DF80C308DF8D0
:100C2C000F600E9828B304909DF80C20082A28BF5A
:100C3C00082207A901A802F0BDFDA36B0133A36331
:100C4C00A36C0BB16846984707AB09AA002128464C
:100C5C0000F06BFF0028CED1002300930193029388
:100C6C0003930493059306930B9B042BC5D10A9A0B
:100C7C00C4E700F0F9FCD6E730B589B00546FFF7BC
:100C8C002FFF04462846FFF71FFF002C3DD00028FD
:100C9C003BD003689B6913F0040200D0102213F0C0
:100CAC00020F01D042F0200213F0010F01D042F0EC
:100CBC004002C3F30213013B052B06D8DFE803F017
:100CCC0003272A05052D42F00202F2B1236C0133F1
:100CDC00236412F0100F02D0636C01336364A36CB5
:100CEC009BB1002301930293039304930593069302
:100CFC0007938DF8135001238DF81830079200F0EC
:100D0C00B3FC0590A36C01A8984709B030BD42F024
:100D1C000802DAE742F00402D7E742F00102D4E716
:100D2C00F0B587B0002837D10E460446FFF7D8FE41
:100D3C0005462046FFF7C8FE044695F84C3073B3C1
:100D4C0002AB009303AB04AA05A93046FFF7D4FE0F
:100D5C00074638BB204600F042FE059B6360029BB1
:100D6C00013BE360049B013B2361039B013B6361FB
:100D7C00204600F0DAFCC0B9AE62204600F001FE5D
:100D8C0095F84D3013B9384607B0F0BD48F602411E
:100D9C00204600F07FFFF6E74FF0FF37F3E76FF0E8
:100DAC000307F0E74FF0FF37EDE76FF00407EAE7D2
:100DBC00002836D170B50D460446FFF791FE064665
:100DCC002046FFF781FE044696F84C3063B300F0E2
:100DDC0006FE032D2BD8DFE805F00212161A0023AD
:100DEC00A360204600F0A1FC20BB204600F0C9FD0A
:100DFC0096F84D307BB986F82C50002070BD4FF022
:100E0C000043A360EDE74FF08043A360E9E74FF0A8
:100E1C004043A360E5E748F60241204600F03AFF64
:100E2C00E9E74FF0FF3070476FF00300E6E74FF053
:100E3C00FF30E3E76FF00400E0E7002835D12DE93F
:100E4C00F0418AB00F4690461E460546FFF748FE15
:100E5C0004462846FFF738FE054694F84C303BB361
:100E6C0028220021684602F0B3FC0597B8F1000275
:100E7C0018BF01220692003E18BF01260796BDF846
:100E8C0040300093BDF844300193BDF848300293D4
:100E9C00BDF84C300393012308936946284600F0B3
:100EAC00EAFC40B90AB0BDE8F0814FF0FF30704762
:100EBC006FF00300F6E76FF00400F3E72DE9F04F55
:100ECC0089B09DF848B0139F149C00285DD18946C9
:100EDC0016469A460546FFF703FE80462846FFF75E
:100EEC00F3FD054698F84C30002B51D0BBF1080FA0
:100EFC0051D800230293039304930593069307930D
:100F0C006EBB4B460293012E01D04FF00009CDF879
:100F1C000C90012E25D000230493BAF1010F22D09E
:100F2C0000230593CDF818B001238DF81C3000F088
:100F3C0095FB064601AB3A4602A9284600F080FD17
:100F4C0098B1D4B100F08AFB831BA342F2D3D8F83A
:100F5C0034300133C8F834306FF002000AE000235B
:100F6C00D0E70423D8E70223DBE7D8F8303001338D
:100F7C00C8F8303009B0BDE8F08FD8F83430013300
:100F8C00C8F834306FF00500F4E74FF0FF30F1E7AC
:100F9C006FF00300EEE74FF0FF30EBE738B910B518
:100FAC000C46FFF79DFD28B18464002010BD4FF066
:100FBC00FF3070474FF0FF30F8E7C0B938B5054641
:100FCC00FFF78EFD04462846FFF77EFD054694F894
:100FDC004C307BB100F0D5FC78B948F6127128463C
:100FEC0000F058FE012384F84D30002038BD4FF03E
:100FFC00FF3070476FF00300F8E76FF00400F5E77F
:10100C00B0B938B50546FFF76BFD04462846FFF727
:10101C005BFD054694F84C306BB148F6127100F04C
:10102C004BFE284600F0DBFC002084F84D0038BD58
:10103C004FF0FF3070476FF00300F8E70120704766
:10104C0038B900EB8003044A02EB031393F84C000D
:10105C0070470020704700BF4402002008B50020F4
:10106C00FFF732FD38B100F047FE0020FFF7B4FD6A
:10107C000020FFF701FE08BD30B589B0214CA369F3
:10108C0043F40073A361A36903F400730193019B00
:10109C00A36943F00403A361A36903F0040302935F
:1010AC00029B00250495059506950795032305934A
:1010BC000123049304A9144801F070FE636943F002
:1010CC0001036361636903F001030393039B0F4CFA
:1010DC000F4B23606560A5608023E3604FF4807341
:1010EC0023614FF4806363612023A3614FF40053A9
:1010FC00E361204601F072FD064B1C62636209B08D
:10110C0030BD00BF0010024000080140A00A0020C2
:10111C0008000240E40A00200120704708B50B4B80
:10112C001B787BB10A4B1B780BB1002008BD4FF428
:10113C0080620849084801F027F8054B01221A7013
:10114C000020F3E76FF00100F0E700BF140B002064
:10115C00150B002094020020E40A002008B5064B71
:10116C001B780BB9002008BD044801F055F9024B5F
:10117C0000221A70F6E700BF150B0020E40A0020CD
:10118C00002843D0F0B585B00546254B1B7833B904
:10119C002F68244B9F4205D82FB9234F03E0FFF74C
:1011AC00DDFFF5E71F4F2E790C2E02D816B90C2651
:1011BC0000E00C261D4C30220021204602F008FBDA
:1011CC001B4B23600123237323614FF46023E361E2
:1011DC00FFF752FF204601F09BF8D0B90023019392
:1011EC00029303930123029301A9204600F0E6FE2B
:1011FC0090B9104A13462868696803C317601671C2
:10120C000D4B01221A70002005B0F0BD4FF0FF30DD
:10121C0070476FF00500F7E76FF00500F4E700BFCB
:10122C00150B002040420F00A0860100E40A0020AC
:10123C0000240140980A0020140B0020014B186078
:10124C0000207047940A0020034610B10A48007829
:10125C00187039B1094B1B7813B1094B1B6800E0AE
:10126C0000230B602AB1054B1B780BB1044B1B7987
:10127C0013700020704700BF150B0020140B0020CA
:10128C00980A0020114B1B6813B1114B984200D0E7
:10129C00704700B585B000F0E7F900900D4B019355
:1012AC004FF40073ADF808304FF48063ADF80A309A
:1012BC00094B1A798DF80C209B798DF80D30034B66
:1012CC001B686846984705B05DF804FB940A00203B
:1012DC00E40A002094020020980A0020114B1B689D
:1012EC0013B1114B984200D0704700B585B000F097
:1012FC00BBF900900D4B01934FF40073ADF808301F
:10130C004FF48063ADF80A30094B1A798DF80C2034
:10131C009B798DF80D30034B1B686846984705B0D8
:10132C005DF804FB940A0020E40A002094060020D7
:10133C00980A00202DE9F04186B00746284B9A699F
:10134C0042F004029A619A6902F004020092009A37
:10135C009A6942F480429A619B6903F48043019339
:10136C00019B002402940394049405940223039398
:10137C00012604964FF00308CDF814804FF4007347
:10138C000293184D02A9284601F008FD0394049617
:10139C00CDF814804FF48063029302A9284601F023
:1013AC00FDFC114D48222146284602F011FA0F4B44
:1013BC002B606F600C236B61284601F04BF92246C1
:1013CC002146252002F042F9252002F077F9324619
:1013DC000749284601F0D9FB06B0BDE8F08100BFF3
:1013EC0000100240000801402C0C00200038014085
:1013FC00240C002008B5114B834200D008BD104BC3
:10140C001B889BB201335A42DBB2D2B258BF534253
:10141C009BB20C4A128892B29A4209D008490A88A7
:10142C0092B2094890F800C0084800F802C00B803E
:10143C0001220549014801F0A8FBDFE72C0C002034
:10144C00260C0020280C0020240C0020240B00204B
:10145C0008B5024801F03AFA08BD00BF2C0C002078
:10146C0080B108B503460A4A0068596803C21A7865
:10147C00012A0AD05868FFF75DFF064B01221A704B
:10148C00002008BD4FF0FF3070476FF00500F8E703
:10149C00180B0020200B002038B50C4B1B7873B1B7
:1014AC0004460D460A4801F006F9012C0AD02846DC
:1014BC00FFF740FF074B1C705D60002038BD6FF0DC
:1014CC000100FBE76FF00600F8E700BF200B0020DF
:1014DC002C0C0020180B0020014B1878704700BF13
:1014EC00180B002008B513460E4A127862B170B181
:1014FC0079B10D4A1278012A0DD00A4601460B48E3
:10150C0001F0F3F850B908BD6FF00100FBE70020C3
:10151C00F9E70020F7E76FF00500F4E76FF0030040
:10152C00F1E700BF200B0020180B00202C0C002032
:10153C00224B1B78002B35D0002836D0002A37D010
:10154C000023138013888B4235D230B51C4CB4F871
:10155C0000E01FFA8EFE1B4CB4F800C01FFA8CFC86
:10156C00E6451DD0174CB4F800C01FFA8CFC5D1C6E
:10157C001580154D15F80CC000F803C023889BB2DC
:10158C000133D3F1000CDBB25FFA8CFC58BFCCF109
:10159C0000039BB2238013888B42D7D3002000E03A
:1015AC00002030BD6FF0010070474FF0FF307047E6
:1015BC004FF0FF3070470020704700BF200B002019
:1015CC00260C0020280C0020240B0020024A136853
:1015DC0001331360704700BF740C0020044BD3F828
:1015EC00E807D3F8EC275040D3F8F0375840704751
:1015FC0000F0FF1FB0B110B504464822002102F0E4
:10160C00E7F801232370FFF7E9FF60641F22064906
:10161C00E01C02F0E5F81F22044904F1230002F05B
:10162C00DFF810BD704700BFA4380008B4380008BC
:10163C0080B10022026042608260C26001220260BE
:10164C00054981600C21017302714FF47A72C281D9
:10165C0009220260704700BF40420F00014B18681E
:10166C00704700BF740C00204FF08043586A7047DD
:10167C0072B60549CA6802F4E062044B1343CB60AE
:10168C00BFF34F8FFEE700BF00ED00E00400FA054A
:10169C007047704710B504460E4B18784FF47A73A8
:1016AC00B3FBF0F30C4A1068B0FBF3F002F014F843
:1016BC0068B90F2C01D901200AE0002221464FF015
:1016CC00FF3001F0C3FF054B1C60002000E001203F
:1016DC0010BD00BF04000020000000200800002006
:1016EC0008B5074A136843F010031360032001F098
:1016FC009BFF0F20FFF7CEFFFFF7CBFF002008BDAD
:10170C0000200240034A1168034B1B780B44136002
:10171C00704700BF780C002004000020014B1868B3
:10172C00704700BF780C00207047002800F0A180A3
:10173C0038B5044690F82030D3B12268136843F0D2
:10174C0001031360FFF7EAFF054623685A6812F09D
:10175C00010F10D1FFF7E2FF401B0A28F5D9636A8D
:10176C0043F400336362052384F82030012038BD34
:10177C00FFF7DAFFE1E71A6822F002021A60FFF7BE
:10178C00CDFF054623685A6812F0020F0DD0FFF703
:10179C00C5FF401B0A28F5D9636A43F40033636222
:1017AC00052384F820300120E1E7227E012A3DD078
:1017BC001A6822F080021A60637E012B3BD02268EB
:1017CC00136823F040031360A37E012B39D02268E9
:1017DC00136823F020031360E37E012B37D02268BB
:1017EC00136843F010031360237F012B35D022685C
:1017FC00136823F008031360637F012B33D0226836
:10180C00136823F004031360A368E268134322698E
:10181C001343626913436268013A21681343CB6135
:10182C0000206062012384F82030A0E71A6842F09F
:10183C0080021A60C0E72268136843F0400313600B
:10184C00C2E72268136843F020031360C4E72268E0
:10185C00136823F010031360C6E72268136843F083
:10186C0008031360C8E72268136843F0040313608D
:10187C00CAE701207047026890F82030013BDBB2C8
:10188C00012B05D9436A43F480234362012070473E
:10189C0010B5D2F8003243F00103C2F800324B69A4
:1018AC0003F01F03012000FA03F3D2F81C026FEAC5
:1018BC00030C20EA0300C2F81C02C869C0B9D2F8B4
:1018CC000C020CEA0000C2F80C028C884869D1F8B2
:1018DC000CE044EA0E44483042F830400C88486929
:1018EC00D1F808E044EA0E44483002EBC0004460F2
:1018FC00C86901281AD0886988BBD2F804020CEA9E
:10190C000000C2F80402086978BBD2F814020CEA91
:10191C000000C2F81402096A01292CD0D2F8003256
:10192C0023F00103C2F80032002010BDD2F80C02E3
:10193C001843C2F80C028C884869D1F800E044EADC
:10194C000E44483042F830408C894869D1F808E0A0
:10195C0044EA0E44483002EBC0004460CBE7D2F8B6
:10196C0004021843C2F80402CDE7D2F8140218435B
:10197C00C2F81402CFE7D2F81C120B43C2F81C3287
:10198C00CCE770B5044690F82050EDB2012D06D08E
:10199C00436A43F4002343620125284670BD0223A9
:1019AC0080F820300268136823F001031360FFF7FE
:1019BC00B5FE064623685B6813F0010F0CD0FFF7E9
:1019CC00ADFE831B0A2BF5D9636A43F400336362C3
:1019DC00052384F82030E0E700256562DDE738B5A3
:1019EC00044690F82030DBB2022B05D0436A43F456
:1019FC0080134362012038BD0268136843F0010371
:101A0C001360FFF78BFE054623685A6812F0010F2E
:101A1C000DD1FFF783FE431B0A2BF5D9636A43F400
:101A2C0000336362052384F820300120E3E71A6851
:101A3C0022F002021A60012384F820300020DAE739
:101A4C0030B590F820C00468A4680CF1FF3C5FFA34
:101A5C008CFCBCF1010F62D814F0E05F59D0C4F3D8
:101A6C00016C012404FA0CF41C608B68002B3DD132
:101A7C000D68CB68046843EA45550CF118031B014B
:101A8C00E55003680C690CF1180E03EB0E135C6047
:101A9C000B7D012B35D0D17993791B0443EA01637B
:101AAC00517943EA012314790168234301EB0C11AA
:101ABC00C1F88C31D17893781B0443EA01635178D7
:101ACC0043EA0123117802680B4302EB0C12C2F8B3
:101ADC00883102680CF1180C4FEA0C1C52F80C30CF
:101AEC0043F0010342F80C3000201DE04C6843EA3F
:101AFC00C403CC6823430CF11804240105682B5152
:101B0C00BFE7036803EB0E13596841F48071596009
:101B1C00C1E7436A43F400134362012004E0436AC3
:101B2C0043F480234362012030BD90F820C00CF1B7
:101B3C00FF3C5FFA8CFCBCF1010F00F2A58030B4C5
:101B4C0051B90468E46814F0030F10D1436A43F4EC
:101B5C000013436201207EE00468246914F0030F33
:101B6C0005D1436A43F400134362012073E0056816
:101B7C0001F11B0424012C5904F004049460002C82
:101B8C006BD1056801F11B0424012C59640D146000
:101B9C00046801F11B0C4FEA0C1C54F80C4004F0C7
:101BAC000204D4600468A444DCF8045015F0080F57
:101BBC005BD008241461056801F11B0C05EB0C15B6
:101BCC006D68C5F307259561046804EB0C14646813
:101BDC00240C5461026802EB0112D2F8B8211A707D
:101BEC00026802EB0112D2F8B821C2F307225A7034
:101BFC00026802EB0112D2F8B821C2F307429A70C4
:101C0C00026802EB0112D2F8B821120EDA700268E7
:101C1C0002EB0112D2F8BC211A71026802EB01121C
:101C2C00D2F8BC21C2F307225A71026802EB0112EE
:101C3C00D2F8BC21C2F307429A71026802EB01127E
:101C4C00D2F8BC21120EDA71C1B90268D36843F024
:101C5C002003D360002030BC7047056801F11B04E1
:101C6C0024012C59E408546092E701F11B0504EBA4
:101C7C000514646804F00F0414619CE7026813698E
:101C8C0043F020031361E5E7436A43F48023436286
:101C9C000120704790F82030013BDBB2012B05D9B5
:101CAC00436A43F4802343620120704702685369FE
:101CBC00194351610020704790F82030013BDBB292
:101CCC00012B05D9436A43F48023436201207047FA
:101CDC000268536923EA0101516100207047704783
:101CEC007047704770477047704770477047704730
:101CFC0070477047704770472DE9F84F05460368E9
:101D0C005C69D3F804809F68D3F80CB0D3F810A0AA
:101D1C00D3F8189014F001063BD017F0010616D03A
:101D2C0001229A6017F0020F08D117F0040F0CD1A2
:101D3C0017F0080606D04FF4805608E0FFF7CFFFE7
:101D4C00002604E0FFF7CEFF01E04FF4006617F425
:101D5C00807F0DD02B684FF480729A6017F4007F4F
:101D6C0040F0868017F4806F00F0868046F40056B1
:101D7C0017F4803F0DD02B684FF480329A6017F423
:101D8C00003F40F0838017F4802F00F0838046F4EE
:101D9C00004614F0080F07D01BF0100F04D046F4C7
:101DAC0000762B681022DA6014F0040F02D01BF0BE
:101DBC00080F79D114F0020F04D02B68DB6813F0F4
:101DCC00030F78D114F0400F07D01AF0100F04D085
:101DDC0046F480662B6810221A6114F0200F02D092
:101DEC001AF0080F6BD114F0100F04D02B681B697C
:101DFC0013F0030F6AD114F4003F02D018F0100F47
:101E0C0068D114F4803F02D018F0080F69D114F493
:101E1C00004F7AD018F0040F74D014F4807F04D0E3
:101E2C0019F0010F01D046F0010614F4007F04D024
:101E3C0019F0020F01D046F0020614F4806F04D0A2
:101E4C0019F0040F01D046F0040614F4006F59D0B9
:101E5C0019F0700956D0B9F1400F65D058D8B9F1C6
:101E6C00200F5ED0B9F1300F42D146F0200644E08D
:101E7C002846FFF735FF7BE717F4006F02D046F4D6
:101E8C00804675E72846FFF72EFF71E72846FFF7D7
:101E9C0028FF7EE717F4002F02D046F4803678E74F
:101EAC002846FFF721FF74E72B680822DA602846E2
:101EBC00FFF71CFF7EE72846FFF717FF82E72B682A
:101ECC0008221A612846FFF713FF8CE72846FFF714
:101EDC000EFF90E72B6810225A602846FFF709FF87
:101EEC008FE72B6808225A602846FFF703FF8EE71E
:101EFC00B9F1100F01D146F008062A68936923F056
:101F0C00700393612B6804225A609EB9BDE8F88F68
:101F1C00B9F1500F0BD0B9F1600FEED146F48076C9
:101F2C00EBE746F01006E8E746F04006E5E746F03A
:101F3C008006E2E76B6A1E436E622846FFF7DBFE03
:101F4C00E4E7704708B5436A9A6A12F0500F1ED145
:101F5C009A6A42F400729A621A68926802F46022D9
:101F6C00B2F5602F03D01846FFF7B8F908BD1A7BFD
:101F7C00002AF8D19A6A22F480729A629A6A12F450
:101F8C00805FF0D19A6A42F001029A62EBE71B6A19
:101F9C001B6B9847EAE708B5406AFFF773F908BD71
:101FAC00704708B5406A836A43F040038362C36A92
:101FBC0043F00403C362FFF7F3FF08BD30B482B0F3
:101FCC000022019290F82420012A00F0918003460F
:101FDC00012280F824204A68062A2DD80468606BF8
:101FEC0002EB8202053A4FF01F0C0CFA02FC20EABD
:101FFC000C000D6805FA02F2024362630A68092AB2
:10200C003AD91C68E06802EB42021E3A4FF0070C0A
:10201C000CFA02FC20EA0C008D6805FA02F202436D
:10202C00E2600A68103A012A36D90020002283F8AF
:10203C00242002B030BC70470C2A0ED80568286BDF
:10204C0002EB8202233A1F24944020EA04000C681D
:10205C0004FA02F202432A63D0E70568E86A02EB4D
:10206C008202413A1F24944020EA04000C6804FACE
:10207C0002F20243EA62C1E71C68206902EB4202E9
:10208C004FF0070C0CFA02FC20EA0C008D6805FAE4
:10209C0002F202432261C4E71A681648824205D054
:1020AC009A6A42F020029A620120BFE7906810F40D
:1020BC00000F1BD1906840F4000090600A68102A51
:1020CC0001D00020B2E70C4A12680C49A1FB0212A5
:1020DC00920C02EB82025200019202E0019A013A48
:1020EC000192019A002AF9D100209FE700209DE778
:1020FC0002209EE7002401400000002083DE1B43E9
:10210C0030B583B00023019303689A6812F0010F75
:10211C0033D104469A6842F001029A60184B1B684E
:10212C00184AA2FB03239B0C019302E0019B013B89
:10213C000193019B002BF9D1FFF7F0FA05462368B8
:10214C009B6813F0010F16D1FFF7E8FA431B022B23
:10215C00F5D923689B6813F0010FF0D1A36A43F003
:10216C001003A362E36A43F00103E362002384F8E3
:10217C002430012002E0002000E0002003B030BD3C
:10218C000000002083DE1B43F8B504460D461646BE
:10219C0001684448814259D0434B994256D094F837
:1021AC002430012B7CD0012384F824302046FFF707
:1021BC00A7FF074600286ED1A16A21F4706121F0B7
:1021CC00010141F48071A1622268374B9A4244D0DC
:1021DC00A36A23F48013A362536813F4806F05D0B1
:1021EC00A36A23F4405343F48053A362A36A13F409
:1021FC00805F48D0E36A23F00603E362002384F88F
:10220C002430236A294A9A62236A294ADA62236AA9
:10221C00284A1A6323686FF002021A6022689368D6
:10222C0043F480739360216833462A464C31206A0C
:10223C0000F00AFD23689A6802F46022B2F5602F60
:10224C0024D09A6842F480129A6027E0154B5B68A0
:10225C0013F4702FA3D0012720E0A3F580635B68F3
:10226C0013F4702FB4D0A36A43F48013A3620D4B04
:10227C005B6813F4806FB9D0A36A23F4405343F422
:10228C008053A362B2E70023E362B7E79A6842F493
:10229C00A0029A6002E0002384F824303846F8BD8E
:1022AC000227FBE70024014000280140511F0008D1
:1022BC00A31F0008AF1F000838B503689A6812F016
:1022CC00010F01D1002038BD04469A6822F00102AA
:1022DC009A60FFF723FA054623689B6813F0010FF9
:1022EC0013D0FFF71BFA431B022BF5D923689B680D
:1022FC0013F0010FF0D0A36A43F01003A362E36A5A
:10230C0043F00103E3620120DDE70020DBE700007E
:10231C0000287BD070B50446836A002B4DD0204634
:10232C00FFF7CAFFA36A13F0100369D1002867D125
:10233C00A26A22F4885222F0020242F00202A26245
:10234C006268E1690A43217B42EA4102A568B5F55E
:10235C00807F02D0012D36D01D46267D012E35D032
:10236C002668716821F46941294371602568AE685B
:10237C00274931401143A960A168B1F5807F01D094
:10238C00012902D12369013B1B052568E96A21F467
:10239C0070010B43EB62236899681E4B0B409A4209
:1023AC0025D0A36A23F0120343F01003A362E36A5F
:1023BC0043F00103E362012027E0C36280F824307C
:1023CC00FFF7BFFDABE74FF48075C6E731B9A169E4
:1023DC00013945EA413141F40065C1E7A16A41F098
:1023EC002001A162E16A41F00101E162B8E700233A
:1023FC00E362A36A23F0030343F00103A36204E046
:10240C00A36A43F01003A362012070BD0120704742
:10241C00FDF7E1FFFE0E1FFF90F82430012B28D0B2
:10242C0010B50446012380F82430FFF745FF50B95E
:10243C002268936823F480739360226A92F82130A7
:10244C00DBB2022B03D0002384F8243010BD1046DD
:10245C0000F035FC40B9A36A23F4885323F0010340
:10246C0043F00103A362EEE7A36A43F04003A362C7
:10247C00E9E702207047026802F10C0353E8003FC1
:10248C0023F490730C3242E800310029F3D1026836
:10249C0002F1140353E8003F23F00103143242E825
:1024AC0000310029F3D1036B012B05D0202380F8D8
:1024BC004230002303637047026802F10C0353E8B7
:1024CC00003F23F010030C3242E800310029F3D115
:1024DC00ECE790F84130DBB2212B01D002207047A1
:1024EC008368B3F5805F17D0036A5A1C02621A78AE
:1024FC0003685A60C38C9BB2013B9BB2C3844BB93B
:10250C000268D36823F08003D3600268D36843F079
:10251C004003D360002070470369002BE4D1036AA9
:10252C001B880268C3F308035360036A0233036217
:10253C00E0E7000010B504460268136923F4405329
:10254C00C1680B43136183680269134342691A43E0
:10255C000168CB6823F4B05323F00C031343CB6016
:10256C000268536923F4407381690B435361026819
:10257C00134B9A4220D001F037F8024602EB82024C
:10258C0002EB820263689B00B2FBF3F20D48A0FBE6
:10259C0002314909642303FB11231B013233A0FBD5
:1025AC0003235B0903F0F00202EB011203F00F03AB
:1025BC00216813448B6010BD01F026F80246DDE75C
:1025CC00003801401F85EB512DE9F04383B00546DF
:1025DC000E4617469946DDF828802C68246836EAA2
:1025EC0004030CBF4FF0010C4FF0000CBC4528D17C
:1025FC00B8F1FF3FF1D0FFF791F8A0EB090040458F
:10260C0023D8B8F1000F22D02B68DA6812F0040F2F
:10261C00E3D0802EE1D0402EDFD01A6812F0080FE4
:10262C00DBD0002401941A6801925B680193019B32
:10263C002846FFF720FF08236B6485F840400120F3
:10264C0000E0002003B0BDE8F0830320FAE703208C
:10265C00F8E7704760B310B5044690F8413013B3F7
:10266C00242384F841302268D36823F40053D360C8
:10267C002046FFF75FFF2268136923F49043136130
:10268C002268536923F02A0353612268D36843F408
:10269C000053D36000206064202384F8413084F818
:1026AC004230606310BD80F84030FFF7D2FFD7E7AF
:1026BC00012070477047B0B110B50446242380F850
:1026CC0041300268D36823F40053D360FFF7F2FF64
:1026DC000020606484F8410084F842002063606349
:1026EC0084F8400010BD012070472DE9F04182B004
:1026FC001E4690F84130DBB2202B56D104460D46D5
:10270C009046002955D00AB901204FE000234364BC
:10271C00212380F84130FFF701F80746A4F8248004
:10272C00A4F82680A368B3F5805F02D04FF00008B0
:10273C0014E023692BB34FF000080FE0202384F83A
:10274C004130032032E038F8023B2268C3F308031F
:10275C005360E28C92B2013A92B2E284E38C9BB267
:10276C0093B100963B46002280212046FFF72CFFB8
:10277C000028E3D1002DE6D015F8012B23685A6010
:10278C00E7E7A8460025E9E700963B4600224021F2
:10279C002046FFF719FF18B9202384F8413005E0D3
:1027AC00202384F84130032000E0022002B0BDE871
:1027BC00F0810120FAE7704708B50168CA6822F079
:1027CC004002CA60202280F84120FFF7F4FF00206D
:1027DC0008BD704708B5406A0023C385C384FFF762
:1027EC00F8FF08BD704790F84230DBB2222B69D15C
:1027FC008368B3F5805F4FD0826AB3F5805F04D0F5
:10280C00002B56D10369002B53D103685B681370FE
:10281C00836A01338362C38D9BB2013B9BB2C38538
:10282C00002B51D100B583B00268D36823F020038C
:10283C00D3600268D36823F48073D3600268536951
:10284C0023F001035361202380F8423000234363BB
:10285C00036B012B33D100230363026802F10C03D9
:10286C0053E8003F23F010030C3242E800310029FA
:10287C00F3D103681A6812F0100F06D000220192EF
:10288C001A6801925B680193019B818DFFF7AAFF87
:10289C00002003B05DF804FB0269002AACD1826A07
:1028AC0003685B68C3F308031380836A0233836293
:1028BC00B1E703685B6803F07F031370A8E7FEF7CA
:1028CC0099FDE5E7022070470020704730B583B0D2
:1028DC00044602681368D068516913F00F0505D1DE
:1028EC0013F0200F02D010F0200F19D12DB111F0E0
:1028FC00010119D110F4907F16D1216B01297DD0E3
:10290C0013F0800F03D010F0800F40F0188113F0FB
:10291C00400F03D010F0400F40F0158103B030BDD4
:10292C002046FFF760FFF9E713F0010F06D010F413
:10293C00807F03D0626C42F00102626413F0040FDA
:10294C0004D019B1626C42F00202626413F0020FFF
:10295C0004D019B1626C42F00402626413F0080FE7
:10296C0007D010F0200F00D119B1626C42F00802B0
:10297C006264626C002AD1D013F0200F02D010F0E8
:10298C00200F29D123685B6903F04003626C12F0BD
:10299C00080F00D163B32046FFF76DFD23685B6918
:1029AC0013F0400F20D0226802F1140353E8003FCB
:1029BC0023F04003143242E800310029F3D1E36BD9
:1029CC0073B1634A5A63E06B00F09CF90028A5D000
:1029DC00E06B436B9847A1E72046FFF704FFD1E774
:1029EC002046FFF7F6FE99E72046FFF7F2FE95E743
:1029FC002046FFF7EEFE002363648FE713F0100F01
:102A0C003FF47EAF10F0100F3FF47AAF0023019328
:102A1C001368019353680193019B536913F0400FA2
:102A2C0051D0E26B13685B689BB2002B3FF476AF1E
:102A3C00A18D99427FF672AFE3859369202B37D035
:102A4C00226802F10C0353E8003F23F480730C322C
:102A5C0042E800310029F3D1226802F1140353E853
:102A6C00003F23F00103143242E800310029F3D176
:102A7C00226802F1140353E8003F23F040031432A0
:102A8C0042E800310029F3D1202384F8423000239E
:102A9C002363226802F10C0353E8003F23F0100378
:102AAC000C3242E800310029F3D1E06B00F007F959
:102ABC0002236363A18DE38D9BB2C91A89B22046B0
:102ACC00FFF790FE2AE7A18DE38D9BB2C91A89B25C
:102ADC00E38D9BB2002B3FF421AF00293FF41EAFD6
:102AEC00226802F10C0353E8003F23F490730C327C
:102AFC0042E800300028F3D1226802F1140353E8B5
:102B0C00003F23F00103143242E800300028F3D1D7
:102B1C00202384F8423000232363226802F10C0343
:102B2C0053E8003F23F010030C3242E80030002839
:102B3C00F3D1022363632046FFF754FEEEE62046F2
:102B4C00FFF7C7FCEAE62046FFF736FEE6E600BFD5
:102B5C00E127000881628285C28500234364222319
:102B6C0080F84230036923B10268D36843F4807360
:102B7C00D3600268536943F0010353610268D36860
:102B8C0043F02003D3600020704708B590F8423022
:102B9C00DBB2202B08D149B10AB9012008BD0023B2
:102BAC000363FFF7D7FFF9E70220F7E70120F5E70A
:102BBC0030B40124056CAC40C56B6C600468636078
:102BCC004368102B05D0036899600368DA6030BC49
:102BDC00704703689A600368D960F8E760B310B473
:102BEC0002460168154B0B441548A0FB03031B0957
:102BFC009B001364134BD363022382F821300868C3
:102C0C0020F47F5020F03000536894682343D4683C
:102C1C002343146923435469234394692343D4699C
:102C2C00234303430B6000209063012382F821307F
:102C3C0082F8200010BC704701207047F8FFFDBFE0
:102C4C00CDCCCCCC0000024038B5044690F8200026
:102C5C00012832D0012084F8200094F82100C0B261
:102C6C00012804D0002384F82030022038BD022033
:102C7C0084F821000020A0632568286820F001005A
:102C8C0028602046FFF794FFE36A5BB12268136863
:102C9C0043F00E0313602268136843F001031360C2
:102CAC000020E3E72268136823F004031360226812
:102CBC00136843F00A031360EDE70220D6E790F89F
:102CCC002130DBB2022B06D004238363002380F86F
:102CDC002030012070470268136823F00E03136044
:102CEC000268136823F001031360036CC16B0122AB
:102CFC0002FA03F34B6080F82120002380F8203087
:102D0C001846704708B590F82130DBB2022B03D07F
:102D1C0004238363012008BD0268136823F00E03AB
:102D2C0013600268136823F0010313600368194AE7
:102D3C00934214D0143293421FD0143293421ED0BB
:102D4C00143293421ED0143293421ED0143293424A
:102D5C0002D04FF0807203E04FF4801200E00122A9
:102D6C000D4B5A60012380F82130002380F820306D
:102D7C00436B6BB198470020CDE71022F0E74FF47E
:102D8C008072EDE74FF48052EAE74FF48032E7E7C8
:102D9C000020C0E7080002400000024070B582B07D
:102DAC000024A446A6E0804DAA4210D007D97F4D3E
:102DBC00AA420CD005F58035AA4208D013E0A5F53F
:102DCC008015AA4203D005F57025AA4207D18A685E
:102DDC00002A58D0012A51D04361082403E0A5F5FC
:102DEC008015AA42F3D0BEF1FF0F4ED80646BEF1B5
:102DFC00FF0F4CD84FEA8C0233680F25954023EA1D
:102E0C00050304FA02F2134333604B6813F0805F3E
:102E1C006ED0674B9A6942F001029A619B6903F08C
:102E2C0001030193019B4FEA9C02951C614B53F8E3
:102E3C0025600CF003039D000F23AB4026EA03062C
:102E4C005D4B984229D003F58063984200F08E8048
:102E5C0003F58063984200F08B8003F58063984201
:102E6C0019D004231AE0CC68BDE7CC680434BAE767
:102E7C00CC680834B7E7CC680C34B4E70361082499
:102E8C00B1E70024AFE70424ADE7061DAFE7ACF1D2
:102E9C0008029200B0E7032300E00023AB40334369
:102EAC000232444D45F822304B6813F4801F61D038
:102EBC00424A936843EA0E0393604B6813F4001F75
:102ECC005ED03E4AD36843EA0E03D3604B6813F4DA
:102EDC00003F5BD0394A536843EA0E0353604B689A
:102EEC0013F4803F58D0354A136843EA0E0313603D
:102EFC000CF1010C0A6832FA0CF353D0012303FADB
:102F0C000CF302EA030E33EA0202F1D14A68122AE8
:102F1C003FF649AF122A3FF666AF01A555F822F0ED
:102F2C00DB2D0008732E00087D2E00088F2E000864
:102F3C00F32D0008F32D0008F32D0008F32D0008E5
:102F4C00F32D0008F32D0008F32D0008F32D0008D5
:102F5C00F32D0008F32D0008F32D0008F32D0008C5
:102F6C00F32D0008772E0008832E0008012395E727
:102F7C00022393E7114A936823EA0E0393609CE7BC
:102F8C000E4AD36823EA0E03D3609FE70B4A5368BB
:102F9C0023EA0E035360A2E7084A136823EA0E03E0
:102FAC001360A5E702B070BD0000221000003110C4
:102FBC0000100240000001400008014000040140E4
:102FCC000AB101617047090401617047C36801EAE5
:102FDC00030221EA030141EA02410161704700004A
:102FEC0082B0084B1B68084AA2FB03235B0A00FB58
:102FFC0003F3019300BF019B5A1E0192002BF9D1E0
:10300C0002B0704700000020D34D6210002800F081
:10301C00F18170B582B00446036813F0010F2CD017
:10302C00994B5B6803F00C03042B1DD0964B5B682B
:10303C0003F00C03082B12D06368B3F5803F41D02A
:10304C00002B55D103F1804303F504331A6822F4A5
:10305C0080321A601A6822F480221A6037E08A4B98
:10306C005B6813F4803FE7D0874B1B6813F4003F79
:10307C0003D06368002B00F0BF81236813F0020FAC
:10308C0075D0814B5B6813F00C0F5FD07E4B5B6887
:10309C0003F00C03082B54D02369002B00F08A801A
:1030AC007A4B01221A60FEF739FB0546764B1B68FA
:1030BC0013F0020F75D1FEF731FB401B0228F5D936
:1030CC0003209EE1704A136843F4803313606368F5
:1030DC0043B3FEF723FB05466B4B1B6813F4003F11
:1030EC00CBD1FEF71BFB401B6428F5D9032088E1EC
:1030FC00B3F5A02F09D0644B1A6822F480321A6001
:10310C001A6822F480221A60E1E703F18043A3F5E8
:10311C003C331A6842F480221A601A6842F48032F6
:10312C001A60D4E7FEF7FAFA0546574B1B6813F4FE
:10313C00003FA2D0FEF7F2FA401B6428F5D9032019
:10314C005FE1514B5B6813F4803FA5D14E4B1B687C
:10315C0013F0020F03D02369012B40F04F814A4A30
:10316C00136823F0F803616943EAC1031360236811
:10317C0013F0080F33D0A369002B5CD0434B012212
:10318C00C3F88024FEF7CAFA05463F4B5B6A13F07E
:10319C00020F21D1FEF7C2FA401B0228F5D90320F9
:1031AC002FE1394A136823F0F803616943EAC1033C
:1031BC001360DCE7354B00221A60FEF7AFFA0546C8
:1031CC00314B1B6813F0020FD1D0FEF7A7FA401B4E
:1031DC000228F5D9032014E10120FFF701FF236831
:1031EC0013F0040F00F09680274BDB6913F0805F1F
:1031FC0034D1254BDA6942F08052DA61DB6903F095
:10320C0080530193019B0125214B1B6813F4807F94
:10321C0026D0E368012B3DD0002B53D103F1804322
:10322C0003F504331A6A22F001021A621A6A22F0B8
:10323C0004021A6233E0154B0022C3F88024FEF717
:10324C006DFA0546104B5B6A13F0020FC7D0FEF700
:10325C0065FA401B0228F5D90320D2E00025D3E7FC
:10326C000B4A136843F480731360FEF757FA064653
:10327C00074B1B6813F4807FCBD1FEF74FFA801BF2
:10328C006428F5D90320BCE0001002400000424243
:10329C00007000405F4A136A43F001031362E36855
:1032AC0033B3FEF73BFA06465A4B1B6A13F0020F78
:1032BC002FD1FEF733FA801B41F288339842F3D9B1
:1032CC0003209EE0052B09D0524B1A6A22F0010212
:1032DC001A621A6A22F004021A62E0E74D4B1A6A6B
:1032EC0042F004021A621A6A42F001021A62D6E72C
:1032FC00FEF714FA0646474B1B6A13F0020F08D070
:10330C00FEF70CFA801B41F288339842F3D9032064
:10331C0077E0E5B9E369002B72D03E4A526802F0BF
:10332C000C02082A56D0022B17D03B4B00221A66EF
:10333C00FEF7F4F90446374B1B6813F0007F47D0B7
:10334C00FEF7ECF9001B0228F5D9032059E0314AAD
:10335C00D36923F08053D361DCE72F4B00221A662C
:10336C00FEF7DCF905462B4B1B6813F0007F06D0EB
:10337C00FEF7D4F9401B0228F5D9032041E0236A5B
:10338C00B3F5803F1AD023494B6823F47413226A97
:10339C00606A024313434B601F4B01221A66FEF70F
:1033AC00BDF904461B4B1B6813F0007F0ED1FEF7D2
:1033BC00B5F9001B0228F5D9032022E0154A536801
:1033CC0023F40033A1680B435360DCE7002018E0C2
:1033DC00002016E0012B16D00E4B5B6803F48031F5
:1033EC00226A914211D103F47013626A93420ED196
:1033FC00002006E001207047012002E0012000E0DF
:10340C00002002B070BD0120FBE70120F9E701208C
:10341C00F7E700BF00100240000042420F4B5B6810
:10342C0003F00C02082A01D00D487047C3F3834205
:10343C000C49885C13F4803F0BD0084B5B68C3F3DA
:10344C004043094AD35C064A02FB00F0B0FBF3F0A0
:10345C007047064B03FB00F0704700BF00100240A2
:10346C0000127A00E4380008F438000800093D0026
:10347C00002800F0A08070B50D460446524B1B6826
:10348C0003F007038B420BD24F4A136823F0070358
:10349C000B431360136803F007038B4240F08D80DD
:1034AC00236813F0020F17D013F0040F04D0474A0F
:1034BC00536843F4E0635360236813F0080F04D09F
:1034CC00424A536843F460535360404A536823F0B4
:1034DC00F003A1680B435360236813F0010F31D044
:1034EC006368012B20D0022B25D0384A126812F0C9
:1034FC00020F64D035494A6822F0030213434B6033
:10350C00FEF70CF90646314B5B6803F00C0362685E
:10351C00B3EB820F16D0FEF701F9801B41F2883312
:10352C009842F0D9032045E0284A126812F4003F73
:10353C00E0D101203EE0254A126812F0007FD9D17B
:10354C00012037E0204B1B6803F00703AB420AD97C
:10355C001D4A136823F007032B431360136803F011
:10356C000703AB422DD1236813F0040F06D0174A82
:10357C00536823F4E063E1680B435360236813F052
:10358C00080F07D0114A536823F46053216943EAAA
:10359C00C1035360FFF742FF0C4B5B68C3F303138B
:1035AC000B4AD35CD8400B4B18600B4B1868FEF7DA
:1035BC0071F8002070BD012070470120FAE701204E
:1035CC00F8E70120F6E700BF00200240001002409F
:1035DC00CC3800080000002008000020014B1868BF
:1035EC00704700BF0000002008B5FFF7F7FF044B41
:1035FC005B68C3F30223034AD35CD84008BD00BF09
:10360C0000100240DC38000808B5FFF7E7FF044B58
:10361C005B68C3F3C223034AD35CD84008BD00BF28
:10362C0000100240DC380008074AD36823F4E0633A
:10363C001B041B0C000200F4E060034343F0BF6367
:10364C0043F40033D360704700ED00E000B5194B34
:10365C00DB68C3F30223C3F1070CBCF1040F28BFD2
:10366C004FF0040C03F1040EBEF1060F18D9033B06
:10367C004FF0FF3E0EFA0CFC21EA0C0199400EFAB9
:10368C0003F322EA0303194300280BDB0901C9B237
:10369C0000F1604000F5614080F800135DF804FB18
:1036AC000023E5E700F00F000901C9B2024B1954E1
:1036BC00F4E700BF00ED00E014ED00E0002807DBAC
:1036CC0000F01F02400901239340024A42F82030C7
:1036DC00704700BF00E100E00138B0F1807F0BD2F1
:1036EC004FF0E0235861054AF02182F823100020A6
:1036FC00986107221A6170470120704700ED00E0C5
:10370C00042806D04FF0E022136923F00403136160
:10371C0070474FF0E022136943F0040313617047C4
:10372C00FDF7B6FF0B480C490C4A002302E0D458B5
:10373C00C4500433C4188C42F9D3094A094C0023F1
:10374C0001E013600432A242FBD300F00FF8FCF747
:10375C0085FD7047000000200C0000200039000897
:10376C000C0000207C0C0020FEE7000070B5002649
:10377C000C4D0D4C641BA410A64209D100F044F86A
:10378C0000260A4D0A4C641BA410A64205D170BD3C
:10379C0055F8043B98470136EEE755F8043B98473B
:1037AC000136F2E7F8380008F8380008F838000855
:1037BC00FC3800080A44914200F1FF3300D17047F5
:1037CC0010B511F8014B914203F8014FF9D110BD1E
:1037DC0003460244934200D1704703F8011BF9E7FA
:1037EC00034610B5013932B111F8014F013A03F813
:1037FC00014B002CF7D100211A44934200D110BD8B
:10380C0003F8011BF9E70000F8B500BFF8BC08BCD1
:10381C009E467047F8B500BFF8BC08BC9E46704782
:10382C00010000003D08000802000000F907000834
:10383C000300000083070008040000001D070008B7
:10384C0010000000E306000811000000A9060008A3
:10385C00120000005B06000820000000F1050008C3
:10386C0028000000AF0500083000000083050008A8
:10387C003100000057050008320000000F05000859
:10388C0033000000E5040008340000009504000833
:10389C003F0000003504000853544D33324631309C
:1038AC0033433854360000004F70656E2D43616E03
:1038BC006F652043414E20416E616C797A657200D0
:1038CC0000000000000000000102030406070809C4
:1038DC0000000000010203040203040506070809A6
:0C38EC000A0B0C0D0E0F10100102000062
:0438F8003101000892
:0438FC000D010008B2
:0C39000000127A0001000000100000001E
:040000050800372D8B
:00000001FF
